S013000055666F323031395F4D33322E737265630A
S11300000C9434000C9451000C9451000C94510045
S11300100C9451000C9451000C9451000C94510018
S11300200C9451000C9411010C9451000C94510047
S11300300C9451000C9451000C9451000C945100F8
S11300400C94F1010C9451000C9465000C94510033
S11300500C9451000C9451000C9451000C945100D8
S11300600C9451000C94510011241FBECFEFD8E022
S1130070DEBFCDBF11E0A0E0B1E0ECE6F9E002C0E4
S113008005900D92A232B107D9F721E0A2E2B1E0C6
S113009001C01D92AB35B207E1F70E9446020C94F1
S11300A0B4040C9400009093C5008093C40080E9CC
S11300B08093C10086E08093C200109229011092BF
S11300C0280181E08093270108951F920F920FB6B3
S11300D00F9211242F938F939F93AF93BF93EF931A
S11300E0FF932091C6009FB7F89480915A019FBF57
S11300F08032B9F0E6E3F1E0A0A1B1A12C9380A194
S113010091A1019691A380A38655914011F4F1A386
S1130110E0A39FB7F894E6E3F1E084A18F5F84A3A2
S11301209FBFFF91EF91BF91AF919F918F912F91BD
S11301300F900FBE0F901F901895CF93DF9390915F
S1130140280191116BC0C82FD0E0FE01EE0FFF1FF4
S1130150EE0FFF1FEC0FFD1FEC5FFE4F848181301B
S113016009F05CC04DC0FE01EE0FFF1FEE0FFF1F34
S1130170EC0FFD1FEC5FFE4F91818281891720F403
S113018082818F5F82834AC0FE01EE0FFF1FEE0F54
S1130190FF1FEC0FFD1FEC5FFE4F918182819817CA
S11301A020F482818150828339C00E9408046DEC5E
S11301B07CE00E949403660F862F880F880F680FD7
S11301C0CE01880F991F880F991FC80FD91FCC5FC4
S11301D0DE4F69830E94080465EB71E00E9494037A
S11301E06B5F6B831BC0CE01880F991F880F991F0B
S11301F0C80FD91FCC5FDE4F8B8181508B830EC01B
S1130200FE01EE0FFF1FEE0FFF1FEC0FFD1FEC5F53
S1130210FE4F8381882309F4A6CFE5CFDF91CF91E8
S113022008951F920F920FB60F9211242F933F93AC
S11302304F935F936F937F938F939F93EF93FF936A
S113024080E090E041E050E0209124012436D9F48C
S11302509C01FC01EE0FFF1FEE0FFF1FE80FF91FBB
S1130260EC5FFE4F6081653008F45AC0FC01EE0F6C
S1130270FF1FEE0FFF1FE80FF91FEC5FFE4F6081B9
S11302806830B0F14DC09C01FC01EE0FFF1FEE0F72
S1130290FF1FE80FF91FEC5FFE4F7281609124018C
S11302A0761314C060912401643609F051C00EC065
S11302B0F901EE0FFF1FEE0FFF1FE20FF31FEC5FBC
S11302C0FE4F6081683008F451C066C001968630E4
S11302D0910509F0B9CF80912401843619F4109264
S11302E0240170C0809124018F5F809324016AC02F
S11302F0FC01EE0FFF1FEE0FFF1F2E0F3F1FF90132
S1130300EC5FFE4F20816BB1FA0102C0EE0FFF1FBC
S11303102A95E2F79F012095309526232BB9B3CF78
S1130320F901EE0FFF1FEE0FFF1F2E0F3F1FF90104
S1130330EC5FFE4F208165B1FA0102C0EE0FFF1F92
S11303402A95E2F79F0120953095262325B99BCF66
S1130350FC01EE0FFF1FEE0FFF1FE80FF91FEC5F0C
S1130360FE4F6081653008F0A3CF16C0F901EE0F8F
S1130370FF1FEE0FFF1F2E0F3F1FF901EC5FFE4F13
S113038020816BB1FA0102C0EE0FFF1F2A95E2F73C
S11303909F01262B2BB99ACFF901EE0FFF1FEE0F09
S11303A0FF1F2E0F3F1FF901EC5FFE4F208165B147
S11303B0FA0102C0EE0FFF1F2A95E2F79F01262BD8
S11303C025B984CFFF91EF919F918F917F916F9188
S11303D05F914F913F912F910F900FBE0F901F90FF
S11303E018951F920F920FB60F9211242F933F93DB
S11303F04F935F936F937F938F939F93AF93BF9329
S1130400EF93FF938091230180912301863020F4A0
S1130410809123010E949D00809123018F5F80932E
S11304202301893031F495B188E1892785B9109287
S11304302301FF91EF91BF91AF919F918F917F9194
S11304406F915F914F913F912F910F900FBE0F903D
S11304501F90189580E090E00E9420046F3F2FEFDA
S113046072078207910521F46FEE7EEB8DEA9EED13
S1130470CB010E940D040E940804AC01990F660B85
S1130480770B80E090E00E942604089584B18F6188
S113049084B98AB1806E8AB985B1807E85B98BB101
S11304A08F718BB985B1876F85B984E090E00E9424
S11304B01804809322010E942A028FB7F894E6E37D
S11304C0F1E0F1A3E0A3F3A3E2A314A28FBFC0E081
S11304D0D0E00DEC1CE00E940804B8010E949403D3
S11304E0862F880F982F990F990F890FFE01EE0F11
S11304F0FF1FEE0FFF1FEC0FFD1FEC5FFE4F81830C
S11305002196C630D10539F714BC85E085BD16BCEB
S1130510EEE6F0E08081816080831092B00082E09A
S11305208093B1001092B200E0E7F0E08081816036
S1130530808387E690E00E9453007894F12CE6E3F0
S1130540F1E0A4E0B1E081E06AE271E00F2EF4E6AC
S1130550DF2EF02D6894992491F8A12C6894BB2483
S1130560B5F82FB7F89494A12FBF992309F4CDC0FF
S113057030912801332309F4CDC0C7C0F3A3E2A30B
S11305802FB7F89494A1915094A32FBFC09129013F
S1130590CC3028F080932701C32FF12C02C0C11165
S11305A006C090912201941302C01092270191E099
S11305B09C0F90932901D0E0C65DDE4F48834D30F7
S11305C091F4FF2071F290912701911103C080935F
S11305D0280104C01092290180932701B0922601BA
S11305E0A0922501BECFF82E4A3009F4BACFF12CDF
S11305F0B8CFEB0128819091220129135CC090911E
S11306002901933008F457C009812A81253608F05E
S11306102D2DED2CE21AEB01CB8020E030E010E030
S1130620A901E801022E02C0D595C7950A94E2F704
S1130630C0FF3BC0E901CC0FDD1FCC0FDD1FC20F93
S1130640D31FCC5FDE4FE9829430C8F0C2E0CC12F5
S11306500CC0E901CC0FDD1FCC0FDD1FC20FD31F6F
S1130660CC5FDE4F1B829C820AC0E901CC0FDD1FE8
S1130670CC0FDD1FC20FD31FCC5FDE4F8C83EA018A
S1130680CC0FDD1FCC0FDD1FC40FD51FCC5FDE4F99
S1130690CC81C23051F4EA01CC0FDD1FCC0FDD1F39
S11306A0C40FD51FCC5FDE4FEA822F5F3F4F263049
S11306B0310509F0B5CF10922901109228018093D9
S11306C0270120912501309126012115310509F4D6
S11306D048CF215031093093260120932501232B43
S11306E009F03FCF14968C93149719968C9319970D
S11306F01E968C931E9753968C93539758968C936F
S113070058975D968C935D972CCF909128019130EA
S1130710C1F66FCFC2A1D3A14991D3A3C2A3C65539
S1130720D14009F02DCF2ACF97FB072E16F4009461
S113073007D077FD09D00E94A80307FC05D03EF43A
S1130740909581959F4F0895709561957F4F089579
S1130750AA1BBB1B51E107C0AA1FBB1FA617B707E3
S113076010F0A61BB70B881F991F5A95A9F78095FF
S11307709095BC01CD0108958F929F92AF92BF9244
S1130780CF92DF92EF92FF92CF93DF93EC016881D7
S113079079818A819B81611571058105910521F417
S11307A064E279ED8BE597E02DE133EF41E050E031
S11307B00E94510449015A019B01AC01A7EAB1E42A
S11307C00E9470046B017C01ACEEB4EFA5019401AE
S11307D00E947E04DC01CB018C0D9D1DAE1DBF1D4E
S11307E0B7FF03C00197A109B04888839983AA83FE
S11307F0BB839F77DF91CF91FF90EF90DF90CF90F5
S1130800BF90AF909F908F9008950E94BC0308956D
S113081080E091E00E94BC030895A0E0B0E08093E2
S1130820000190930101A0930201B0930301089584
S1130830F999FECF92BD81BDF89A992780B50895A4
S1130840A6E1B0E044E050E00C943504242F0E946B
S11308504404252F0E9444040C942E040E94430453
S1130860272F0C944404DC01CB01FC01F999FECF41
S113087006C0F2BDE1BDF89A319600B40D92415024
S11308805040B8F70895262FF999FECF1FBA92BDAC
S113089081BD20BD0FB6F894FA9AF99A0FBE01965D
S11308A00895052E97FB1EF400940E94680457FDDA
S11308B007D00E94830407FC03D04EF40C94680410
S11308C050954095309521953F4F4F4F5F4F089578
S11308D090958095709561957F4F8F4F9F4F0895A8
S11308E00E94A504A59F900DB49F900DA49F800D18
S11308F0911D11240895B7FF0C9470040E94700494
S1130900821B930B0895A1E21A2EAA1BBB1BFD01A7
S11309100DC0AA1FBB1FEE1FFF1FA217B307E407DA
S1130920F50720F0A21BB30BE40BF50B661F771F32
S1130930881F991F1A9469F7609570958095909512
S11309409B01AC01BD01CF010895A29FB001B39FEB
S1130950C001A39F700D811D1124911DB29F700DC4
S10F0960811D1124911D0895F894FFCF0F
S113096C01000000000064000101006400010200A9
S113097C64000105006400010600640001070064C2
S105098C000164
S9030000FC
